{
  "_format": "hh-sol-artifact-1",
  "contractName": "MEV",
  "sourceName": "contracts/mev.sol",
  "abi": [
    {
      "inputs": [
        {
          "internalType": "address",
          "name": "_WETH",
          "type": "address"
        }
      ],
      "stateMutability": "nonpayable",
      "type": "constructor"
    },
    {
      "inputs": [],
      "name": "WETH",
      "outputs": [
        {
          "internalType": "address",
          "name": "",
          "type": "address"
        }
      ],
      "stateMutability": "view",
      "type": "function"
    },
    {
      "inputs": [
        {
          "internalType": "uint256",
          "name": "amountIn",
          "type": "uint256"
        },
        {
          "internalType": "uint256",
          "name": "amountOut",
          "type": "uint256"
        },
        {
          "internalType": "address",
          "name": "pair",
          "type": "address"
        },
        {
          "internalType": "uint256",
          "name": "deadline",
          "type": "uint256"
        },
        {
          "internalType": "address[]",
          "name": "path",
          "type": "address[]"
        }
      ],
      "name": "swapExactTokensForTokens",
      "outputs": [],
      "stateMutability": "nonpayable",
      "type": "function"
    },
    {
      "stateMutability": "payable",
      "type": "receive"
    }
  ],
  "bytecode": "0x60a060405234801561001057600080fd5b5060405161051238038061051283398101604081905261002f91610040565b6001600160a01b0316608052610070565b60006020828403121561005257600080fd5b81516001600160a01b038116811461006957600080fd5b9392505050565b608051610482610090600039600081816034015260da01526104826000f3fe60806040526004361061002d5760003560e01c8063ab15ebbf146100a8578063ad5c4648146100c857600080fd5b366100a3577f00000000000000000000000000000000000000000000000000000000000000006001600160a01b031663d0e30db0346040518263ffffffff1660e01b81526004016000604051808303818588803b15801561008d57600080fd5b505af11580156100a1573d6000803e3d6000fd5b005b600080fd5b3480156100b457600080fd5b506100a16100c3366004610306565b610118565b3480156100d457600080fd5b506100fc7f000000000000000000000000000000000000000000000000000000000000000081565b6040516001600160a01b03909116815260200160405180910390f35b4283101561015c5760405162461bcd60e51b815260206004820152600c60248201526b1351558e881156141254915160a21b60448201526064015b60405180910390fd5b60008083836000818110610172576101726103a8565b905060200201602081019061018791906103be565b8484600181811061019a5761019a6103a8565b90506020020160208101906101af91906103be565b91509150806001600160a01b0316826001600160a01b0316036102145760405162461bcd60e51b815260206004820152601860248201527f4d45563a204944454e544943414c5f41444452455353455300000000000000006044820152606401610153565b600080826001600160a01b0316846001600160a01b03161061023757828461023a565b83835b91509150600080836001600160a01b0316866001600160a01b031614610262578a6000610266565b60008b5b6040805160008152602081019182905263022c0d9f60e01b90915291935091506001600160a01b038b169063022c0d9f906102aa90859085903090602481016103e0565b600060405180830381600087803b1580156102c457600080fd5b505af11580156102d8573d6000803e3d6000fd5b50505050505050505050505050505050565b80356001600160a01b038116811461030157600080fd5b919050565b60008060008060008060a0878903121561031f57600080fd5b8635955060208701359450610336604088016102ea565b935060608701359250608087013567ffffffffffffffff8082111561035a57600080fd5b818901915089601f83011261036e57600080fd5b81358181111561037d57600080fd5b8a60208260051b850101111561039257600080fd5b6020830194508093505050509295509295509295565b634e487b7160e01b600052603260045260246000fd5b6000602082840312156103d057600080fd5b6103d9826102ea565b9392505050565b84815260006020858184015260018060a01b038516604084015260806060840152835180608085015260005b818110156104285785810183015185820160a00152820161040c565b50600060a0828601015260a0601f19601f830116850101925050509594505050505056fea264697066735822122073126fd7f29b37cd0ef09e8ed846f8cafda724698f6a0e569dabc8dca62abc3f64736f6c63430008110033",
  "linkReferences": {},
  "deployedLinkReferences": {}
}